:020000040800F2
:1000000058110020A1020008733300083B33000898
:100010003F3300080D170008C5420008000000002B
:10002000000000000000000000000000913C0008FB
:10003000C91900080000000075330008933C00084F
:10004000C5020008C5020008C5020008C502000874
:10005000C5020008C5020008C5020008C502000864
:10006000C5020008C5020008C5020008C502000854
:10007000C5020008C5020008C5020008C502000844
:10008000C5020008C5020008C5020008C502000834
:10009000C5020008C5020008C5020008C502000824
:1000A000C5020008C5020008C5020008C502000814
:1000B000B13C0008CD3C0008E93C0008C50200083E
:1000C000C5020008C5020008C5020008C5020008F4
:1000D000C5020008C5020008C50200087D420008EC
:1000E000C5020008C5020008C5020008C5020008D4
:1000F000C5020008C5020008C5020008C5020008C4
:10010000C5020008C5020008C5020008C5020008B3
:10011000C5020008053E0008C5020008C502000827
:10012000C5020008C5020008C5020008C502000893
:10013000C5020008C5020008C5020008C502000883
:10014000C5020008C5020008C5020008C502000873
:10015000C5020008C5020008C5020008C502000863
:10016000C5020008C5020008C5020008C502000853
:10017000C5020008C5020008C50200080000000012
:10018000C5020008C502000800F002F800F078F887
:100190000AA090E8000C82448344AAF10107DA45E2
:1001A00001D100F06DF8AFF2090EBAE80F0013F0BC
:1001B000010F18BFFB1A43F001031847B468000091
:1001C000D46800000A444FF0000C10F8013B13F013
:1001D000070408BF10F8014B1D1108BF10F8015BA0
:1001E000641E05D010F8016B641E01F8016BF9D193
:1001F00013F0080F1EBF10F8014BAD1C0C1B09D1EA
:100200006D1E58BF01F801CBFAD505E014F8016B5B
:1002100001F8016B6D1EF9D59142D6D370470000ED
:100220000023002400250026103A28BF78C1FBD8FF
:10023000520728BF30C148BF0B607047662906F0DF
:100240008280642900F02881752900F025817829B1
:1002500000F05E81632900F0E884732900F0ED84EA
:10026000002070471FB506F064F800F0FDFC0400A4
:100270000020002105F076FEE0601FBD10B510BD26
:1002800000F00EFE1146FFF7EDFF04F04BFA00F010
:100290002CFE03B4FFF7F2FF03BC04F050F800009B
:1002A0000C48016841F4700101600B4880470B481D
:1002B0000047FEE7FEE7FEE7FEE7FEE7FEE7FEE7B4
:1002C000FEE7FEE7FEE7000005480649064A074B41
:1002D0007047000088ED00E09D3C0008890100089F
:1002E0005807002058110020580900205809002004
:1002F000704753EA020C00F069802DE9F04B4FF093
:100300000006002B1FBFB3FA83F503FA05F424FAA5
:1003100005F65E4012BF1643B2FA82F502FA05F402
:10032000C5F120051EBF22FA05FC44EA0C04203565
:1003300056EA044C4FEA144418BF641C4FF00008FE
:100340004FF00009904271EB030C39D3002919BF1B
:10035000B1FA81F701FA07F6B0FA80F700FA07F66A
:10036000C7F120071EBF20FA07FC46EA0C0620371B
:10037000B6FBF4FCA7EB0507103F07F01F0BCBF112
:1003800020060CFA0BFB2CFA06F644BFB3460026F7
:10039000202FA4BF5E464FF0000B5BEA060C08BF9F
:1003A0004FF0010B19EB0B09ABFB027C48EB060885
:1003B000C01B06FB02CC0BFB03CC71EB0C01C1E7AD
:1003C0000B46024641464846BDE8F08B13B54FF058
:1003D00000004FF00001AFF30080BDE81C40704703
:1003E0000FB4044910B503AA029800F02BFC10BC0E
:1003F0005DF814FB0800002070B5044685690068AC
:10040000C10601D5302600E02026C00707D070BD08
:10041000D4E9012130469047206A401C20626D1EBD
:10042000F6D570BD70B5044685690078C00707D160
:1004300070BDD4E9012120209047206A401C206231
:100440006D1EF6D570BD70B50C460546012A05D067
:100450002878800600D5EA69002302E0012305E040
:100460005B1C934202D2E05C0028F9D1A869E6182F
:10047000C01AA861286A184428622846FFF7BCFF02
:1004800004E0D5E9012114F8010B9047B442F8D3F8
:100490002846FFF7C7FF70BD2DE9F041064600244E
:1004A00010687529314616A510D0AFF300800028DA
:1004B00002DA404213A507E031688A0701D512A588
:1004C00002E0490704D511A5012401E0AFF3008043
:1004D00000210A2206F1240709E0B0FBF2FCB0FB80
:1004E000F2F302FB1C00303078541846491C0028F7
:1004F000F3D123462A463046BDE8F04100F023B947
:10050000000000002D0000002B0000002000000073
:1005100070B504460D4621461068AFF3008021886F
:10052000090502D50F4A7A4402E00E4A7A440E3297
:10053000002104F1240305E000F00F060009965D98
:100540005E54491C0028F7D120780023000704D509
:10055000702D02D009B1022311322046BDE870404F
:1005600000F0F1B8385E00002DE9F05F89460446DE
:100570004FF0000ADFF874B1FB44C0F820A0204619
:10058000E1688847002874D0252806D0D4E90121E5
:100590009047206A401C2062F1E700265F46204613
:1005A000E16888472028054607DB312D05D27819F8
:1005B00010F8200C08B10643F1E7B00701D526F08A
:1005C0000406C4F81CA00027C4F818A02A2D09D0DE
:1005D000284603F0ADFE38B304EB8708303DC8F879
:1005E000185019E059F8041B204604EB870291616A
:1005F000E1688847012F054618D1E069002820DA14
:1006000026F020061DE0D8F8180000EB800005EB6E
:1006100040003038C8F818002046E1688847054691
:1006200003F086FE0028EED1012F0AD02E2D08D12E
:100630002046E16888477F1C0546022F46F02006C9
:10064000C4DBA069002803DA404246F00106A0613D
:10065000F00701D026F010066C2D0BD0682D09D0C4
:100660004C2D39D06A2D35D0742D35D07A2D33D01C
:1006700016E038E0E1682F4620468847B842054634
:1006800009D16C2F26D04FF48060E16806432046E4
:100690008847054604E06C2F1AD04FF4807006435B
:1006A0000DB3A5F14100192802D8203546F40066A3
:1006B0004A462946204626604E46FFF7BFFD80B1D8
:1006C00001280BD0F61D26F0070000F1080956E7B7
:1006D0004020E4E78020D8E70020D6E706F10409AF
:1006E0004DE7284652E7206ABDE8F09F0E5E000005
:1006F0004FF0000200B5134694469646203922BFBB
:10070000A0E80C50A0E80C50B1F12001BFF4F7AF05
:10071000090728BFA0E80C5048BF0CC05DF804EBE7
:10072000890028BF40F8042B08BF704748BF20F855
:10073000022B11F0804F18BF00F8012B7047704753
:100740007047704770472DE9F0470D46994692462D
:10075000044600F124080168880604D5E06921F008
:100760001001216000E00120A84201DD471B00E0EC
:100770000027A1697A1902EB0900081AA061207804
:10078000C00602D42046FFF737FE002608E0D4E971
:1007900001211AF806009047206A401C761C20624E
:1007A0004E45F4DB2078C0060AD52046FFF724FE2C
:1007B00006E0D4E9012130209047206A401C2062E5
:1007C000381EA7F10107F4DC07E0D4E9012118F88D
:1007D00005009047206A401C2062281EA5F10105F3
:1007E000F3DC2046FFF71EFE2078000602D502202B
:1007F000BDE8F0870120FBE770472DE9FF4F0C466D
:100800001E464FF0FF378BB0D2E90001DDF8608063
:100810000A908A46C1F30A5505B93D4600210846AB
:100820004FF00000BAF1000F00F4400005DA00EBD1
:1008300080004FF4400101EA50004FEA9059B9F1AD
:10084000010F00DDB9460A9850EA4A000ED044F67E
:100850001050A5F2FF3545432F14B8F1000F1ED0FC
:100860007542291E1EDDC9F100021CE0B8F1010F1E
:100870004FF0000001D0302103E0F24305E02154A5
:10088000401CB042FBDB30460022002121540B9972
:10089000C1F80880C1E900200FB0BDE8F08FBD1B92
:1008A0006D1CDEE74A4600DA694206A800F07EFACF
:1008B00006AB93E8070003AB83E8070050460A99AC
:1008C00000F05CFB8DE80700A0F500501F38009099
:1008D0000398002D0ADD42F21F014A460844002316
:1008E00003A90390684600F0C5FD09E0A0F500509B
:1008F0004A461F38002303A90390684600F0CFFD45
:100900008DE807000004000C03D04FF0FF304108D1
:1009100000E01046B8F1000F03D000220092154607
:100920001EE0751E05D400F0A3F9303262556D1E2D
:10093000F9D5B3460122084302D000227F1C04E00F
:100940002078302801D100227F1E002A099784D008
:100950001DE0112D07DA00F08BF9303262556D1C65
:1009600050EA0102F5D1084302D00098C8B10EE068
:100970000021681E05E0235C625C63542254401E23
:10098000491C8142F7DBAB46A81B401E09900020A2
:1009900004F80B000B98099AC0F80880C0E9002BF6
:1009A0007AE711264FF0000857E72DE9F04F884607
:1009B0000446D21D22F0070191B0D1E90001CDE932
:1009C0000A0103F081FC02460B98C00F01D02D20D4
:1009D00007E02068810701D52B2002E0202101EAF1
:1009E000C000032A099001D0072A05DB03464146CF
:1009F000204600F09BF90BE12078800601D5E069E4
:100A000000E00620B8F1650F814606D0B8F1660F08
:100A100018D0B8F1670F70D131E00020B9F1110F93
:100A2000009001DB112301E009F101030AAA01A9E9
:100A30000CA8FFF7E2FEDDE90C70002609F10105C4
:100A4000834647E001204B4600904FF000470AAA3A
:100A500001A90CA8FFF7D1FEDDE90DB00C995D46A8
:100A6000002610B909F101000D18B9EB050003D4F7
:100A7000C0F1FF3609F10105A5EB09002BE0B9F142
:100A8000010F01DA4FF001090020B9F1110F0090B8
:100A9000484601DD112300E003460AAA01A90CA87B
:100AA000FFF7ABFEDDE90C704D460026834620784B
:100AB00000070AD4AB4500DA5D4601A8012D04DD2C
:100AC000411911F8011C302907D04F4502DA17F1FE
:100AD000040F04DA012082460FE06D1EEEE7002FBE
:100AE00002DCED1B3E4403E0781CA84200DD7D1CC7
:100AF000B81B00F1010A4FF000472078000703D42B
:100B0000AA4501DB4FF0FF3A0021B7F1004F0DF18C
:100B100043088DF8431024D002202B23002F01DA44
:100B20007F422D230A21021EA0F1010000DC5FB1EB
:100B300097FBF1FC97FBF1F201FB1C7C17460CF1D3
:100B4000300C08F801CDEEE7A8F101000370218810
:100B5000090501D5452100E06521A0F1010800F853
:100B6000011C09980FA9A1EB0807FF1D00B1012086
:100B7000411901EBEA70A1693844081A401EA061CE
:100B80002078C00602D42046FFF736FC099828B129
:100B9000D4E901219047206A401C20622078C006D9
:100BA00022D52046FFF728FC1EE0002E04DBB345CB
:100BB00002DD01A8805D00E03020D4E901219047EA
:100BC000206A401C2062761CAAF101005FEA000A3C
:100BD0000AD100F049F8C0680168405CD4E90121FD
:100BE0009047206A401C2062281EA5F10105DCDC2C
:100BF00007E0D4E9012118F8010B9047206A401C56
:100C00002062381EA7F10107F3DC2046FFF70AFC3B
:100C1000032011B041E610B5436913B1AFF3008072
:100C200001E0FFF710FC012010BD127800F1240153
:100C30000A7000224A700122EDE711684FF0FF327E
:100C4000E9E70000074B70B50D467B4400F05BF808
:100C50000446284600F01CF910B14FF0FF3070BD7B
:100C6000204670BD13390000004870471807002067
:100C700030B5B0F10A024FEA900E71F100034EEA6E
:100C8000817EB0EB0E0061EB91014FEA101E4EEA3F
:100C9000017E10EB0E0041EB11114FEA102E4EEACF
:100CA000016E10EB0E0041EB11214FEA104E4EEA9F
:100CB000014E10EB0E0041EB1141401841F10001D3
:100CC0004FEAD00040EA41704FEAD10110EB8005B5
:100CD0004FEA810444EA907444EB01046D1944EB3B
:100CE0000404521BA3414FF0000348BF0A3200D551
:100CF00030BD401C41F1000130BD000001694A1CBB
:100D000002610878704700B58FB0CDE9013100214C
:100D1000059105497944CDE9031011466846FFF76E
:100D200023FC0FB000BD0000E5FFFFFF2DE9F041FF
:100D30001F46044603260168072A01F4006004DB0D
:100D400008B116A505E016A503E008B115A500E059
:100D500015A521F010002060A069C01EA0610FB190
:100D6000401EA0612046FFF747FB4FB1D4E90121A7
:100D700038469047206A401C2062C01C206206E072
:100D8000206AFAE7D4E9012115F8010B9047761E95
:100D9000F8D22046FFF746FBBDE8F0814E414E00F9
:100DA0006E616E00494E4600696E66002DE9F0479F
:100DB000814616468AB0354878440DC88DE80D0046
:100DC00032487844801C03AC0DC884E80D0041F61D
:100DD0009B300844372190FBF1F290FBF1F5A5F12F
:100DE000800501FB12041B3C02D56442012000E097
:100DF0000020DFF898A080460027FA44AAF1BE0A36
:100E00000EE0E0070AD03246684607EB47010123AF
:100E10000AEB810100F043FB8DE8070064107F1CA2
:100E2000002CEED1194F7F44AE3F19E0E80715D0F2
:100E300007EB04100DF1180A90E80E008AE80E0086
:100E4000C068F04201D1981908903246012306A9E2
:100E500003A800F024FB03AB83E807006D10641CBB
:100E6000002DE3D14FF0010332466946B8F1000F7F
:100E700003A802D000F0FEFA01E000F010FBC9E97F
:100E80000001C9F808200AB0BDE8F0875C560000F0
:100E9000007B00F08000704700487047F806002093
:100EA0007546FFF7F9FFAE4605006946534620F048
:100EB0000700854618B020B5FFF706FABDE82040C8
:100EC0004FF000064FF000074FF000084FF0000B06
:100ED00021F00701AC46ACE8C009ACE8C009ACE8B9
:100EE000C009ACE8C0098D46704710B50446AFF3A1
:100EF00000802046BDE81040FFF7CBB94FF0013C21
:100F000050F8042B51F8043B9A4221D1A2EB0C0378
:100F1000934313EACC1317D150F8042B51F8043B38
:100F20009A4215D1A2EB0C03934313EACC130BD1D5
:100F300050F8042B51F8043B9A4209D1A2EB0C0360
:100F4000934313EACC13DBD04FF00000704700BF8F
:100F5000D01A01BAB1FA81F101F0180122FA01F0B8
:100F6000CB40C1F12001DBB2C0B2C01A2CFA01F3B0
:100F7000D11A914311EAC311E6D170475FEA400CE0
:100F800008BF91F0000F4FEA8C234FEAC12243EAD9
:100F900051514FEA1C5018BF00F5F0404FEA3000A5
:100FA00018BF41F000415FEA6C5C00F02980BCF1A1
:100FB000FF3F08BF40F080407047130C06BF12048B
:100FC0004FF0100C4FF0000C130E04BF12020CF186
:100FD000080C130F04BF12010CF1040C930F04BF93
:100FE00092000CF1020CD30F04BF52000CF1010C63
:100FF00011464FF00002A0F11F00A0EB0C0070475B
:1010000011F0004F08BF704731F000413FF4D5AFF9
:101010000B0C06BF09044FF0100C4FF0000C0B0E28
:1010200004BF09020CF1080C0B0F04BF09010CF1FD
:10103000040C8B0F04BF89000CF1020CCB0F04BF12
:1010400049000CF1010CCCF12003A0EB0C0022FABA
:1010500003F302FA0CF241EA030100F101007047C8
:1010600020F07F4C80EA030023F07F47ACEB0703BE
:1010700003F57C5300F0004003F1FF032DE98049A4
:101080004FEA154B09B44FEA144325EA0B4E24EA04
:1010900003480FF2042606EB132749083E785FEA5F
:1010A000320203FB0667C7F5000707FB06F64FEAA7
:1010B00054374FEAD64606F1020607FB066CCCF120
:1010C000005C4FEA1C472CEA074C07FB06F40CFBBC
:1010D00006F504EB15464FEA961634BF00204FF094
:1010E00000404FEAD13706FB07FC4FEA1C4C0CFBD3
:1010F0000BF7D21B03FB0CF761EB07010CFB0EF7A0
:10110000B0EB074072EB17420CFB08F734BFA2EBC1
:101110000742B2EB074261EB17414FEA0C444FEA3A
:10112000910706FB07FC4FEA1C4C0CFB0BF7B0EBDE
:10113000C74072EB573203FB0CF734BFA2EBC74238
:10114000B2EBC74261EB57310CFB0EF7B0EBC700B7
:1011500072EB57720CFB08F734BFA2EBC702B2EB7D
:10116000C70261EB5771039F4FEA816141EA921117
:1011700004EBCC044FEAD1374FEA826206FB07FC4E
:1011800042EA90124FEA80604FEA1C4C0CFB0BF7CE
:10119000D21B03FB0CF761EB07010CFB0EF7B0EB66
:1011A000074072EB17420CFB08F734BFA2EB074273
:1011B000B2EB074261EB17414FEA8C554FEA9107BA
:1011C00004EB9C2406FB07FC4FEA1C4C0CFB0BF7C2
:1011D000B0EBC74072EB573203FB0CF734BFA2EB06
:1011E000C742B2EBC74261EB57310CFB0EF7B0EBD5
:1011F000C70072EB57720CFB08F734BFA2EBC702B3
:10120000B2EBC70261EB577115EB4C254FEA8161D8
:1012100041EA92114FEA82624FEAD13742EA9012D4
:1012200006FB07FC44F100044FEA80604FEA1C4CC7
:101230000CFB0BF7D21B03FB0CF761EB07010CFB5C
:101240000EF7B0EB074072EB17420CFB08F734BF08
:10125000A2EB0742B2EB074261EB174115EB1C15FD
:101260004FEA813141EA92414FEA823242EA9042AA
:101270004FEA80304FEA0C7644F1000448EA034319
:101280004EEA0B484FF0000EB2EB080C71EB03076F
:1012900024BF624639464EEB0E0E4FF0000B00188D
:1012A000524149414BEB0B0BB2EB080C71EB0307BE
:1012B0007BF1000B24BF624639464EEB0E0E4FF019
:1012C000000B0018524149414BEB0B0BB2EB080CE1
:1012D00071EB03077BF1000B24BF624639464EEBEE
:1012E0000E0E51EA020718BF46F0010616EB0E7605
:1012F00055F1000254F1000103D5BDE88901BDE8B4
:101300000088BDE88901BDE80048B619524141EBAB
:101310000101A3F10103704780807F7E7D7C7B7A91
:101320007978777676757473727171706F6E6E6D91
:101330006C6C6B6A6A696868676666656464636337
:1013400062616160605F5F5E5E5D5D5C5C5B5B5ABD
:101350005A5959585857575656555555545453532A
:1013600052525251515050504F4F4F4E4E4D4D4D85
:101370004C4C4C4B4B4B4A4A4A49494948484847D0
:10138000474747464646454545444444444343430E
:101390004342424242414141002B9C4630D47700B7
:1013A0002BD01CB54FEA370703B44FF010004FF0B5
:1013B0001001BAF1000F06D0BCF1000FDCBF40F005
:1013C000080040F008014FF000000FBCBDE81040DD
:1013D0000BF1010BBBF1010F08BF5FEA170722BF3A
:1013E00012F1010211F101014FF0004143F100033C
:1013F00000F0004043EA00007047F9D35708D0E7F7
:1014000046EA064613F1400F4FEA16461FDD13F178
:10141000200FDFBF16430A46002120335B42BED0B7
:10142000C3F1200746EA064602FA07F74FEA1646D6
:1014300046EA0706C3F1200722FA03F201FA07F78A
:1014400021FA03F14FF0000342EA0702A7E746EA58
:10145000020646EA06464FEA164646EA0106BCBFC1
:1014600046EA0646360C4FF000034FF000024FF0FC
:10147000000194E72DE9804C9A46934670B491E8B8
:10148000380007C831EA400C48BF34EA430C03D5A2
:10149000FFF7E6FDFFF780FFF0BCBDE8008C2DE90B
:1014A000804C9A46934670B491E8380007C810F013
:1014B000804F08BF13F0804F03D100F005F8FFF70D
:1014C0006BFFF0BCBDE8008C20F07F4780EA030092
:1014D00023F07F4C07EB0C03A3F57C5300F0004096
:1014E000A3F1FE0392F0000F00F0B38095F0000F1F
:1014F00000F077802DE901494FEA11404FEA144688
:1015000021EA004800FB06FC24EA064708FB06F631
:1015100007FB08F800FB07F718EB06484CEB164CE6
:101520004FEA124B18EB07484FEA15464CEB1740B1
:1015300022EA0B4E0BFB06FC25EA06470EFB06F6DD
:1015400007FB0EFE0BFB07F71EEB064E4CEB164C93
:101550004FF000061EEB074E4CEB174B18EB0B0839
:1015600040F1000018EB0E0B58EB000840F10000B2
:101570008F1A4FF000013CBFC943661B14BFB5EB87
:10158000040C00213CBFC943F61B4FEA17444EEA46
:101590008E0E27EA04454FEA1C4704FB07622CEA3B
:1015A000074C05FB07F70CFB05F604FB0CFC16EBE0
:1015B000074642EB174216EB0C4642EB1C421BEB74
:1015C000060658EB0202414146EA9E0601D5BDE8F7
:1015D0000189B619524141EB0101A3F10103BDE8B4
:1015E00001894FEA14454FEA114724EA054621EAEA
:1015F000074C05FB07F406FB07F70CFB06F105FBA0
:101600000CFC11EB074144EB17444FEA124711EB76
:101610000C4144EB1C4422EA074C05FB07F206FB95
:1016200007F70CFB06F605FB0CFC16EB074642EB36
:10163000174216EB0C4642EB1C456A1854F10001A8
:1016400048BF7047B619524141EB0101A3F10103B4
:10165000704795F0000F37D04FEA11424FEA144718
:1016600021EA024624EA074C02FB07F106FB07F7D2
:101670000CFB06F402FB0CFC14EB074441EB174196
:101680004FEA154714EB0C4441EB1C4125EA074C8B
:1016900002FB07F506FB07F70CFB06F602FB0CFC4A
:1016A00016EB074645EB174516EB0C4645EB1C427F
:1016B000121951F1000148BF7047B619524141EB70
:1016C0000101A3F1010370474FEA14454FEA1147A6
:1016D00024EA054621EA074C05FB07F106FB07F75C
:1016E0000CFB06F24FF0000605FB0CFC12EB074268
:1016F00041EB174112EB0C4251EB1C4148BF7047C4
:10170000921841EB0101A3F10103704700BFFEE70E
:1017100000B587B000BF00BF002001900D480068F1
:1017200040F040000B4908600846006800F04000A7
:10173000019000BF00BF00BF481502900020039039
:10174000012004900220059002A9034800F052FDF8
:1017500007B000BD303802400018024000B587B025
:1017600000BF00BF002001900D48006840F040001D
:101770000B4908600846006800F04000019000BF77
:1017800000BF00BF48150290012003900490022082
:10179000059002A9034800F02DFD07B000BD000030
:1017A00030380240001802402DE9F0472DED068B3D
:1017B00000210C460D4600269FED750AB0EE408ACA
:1017C000002700224FF40071724800F01DFE132024
:1017D00002F055FE012251026E4800F015FE142061
:1017E00002F07AFEFFF794FF41F2883600E0761EA1
:1017F0004FF40071674800F0FFFD08B9002EF6DCD9
:1018000041F2883600E0761E4FF40071614800F026
:10181000F3FD08B1002EF6DC4FF000082BE041F29A
:10182000883600E0761E4FF400715A4800F0E4FD5F
:1018300008B9002EF6DC1C2002F04EFE4FF40071B9
:10184000544800F0D9FD30B1231945EB05005C1C6C
:1018500040F1000501E024196D4141F2883600E0B5
:10186000761E4FF400714B4800F0C6FD08B1002E03
:10187000F6DC08F10108B8F1280FD0DBFFF76EFFA6
:1018800001225102434800F0BFFD200E40EA05202E
:1018900029184FEA144040EA054009184FEA14207D
:1018A00040EA05600818C7B2E0B2381AC7B227B1DB
:1018B0000020BDEC068BBDE8F087E817EAB20021F6
:1018C000104604F0C3FC34490860200E40EA0521AC
:1018D0002816CAB20021104604F0B8FC08EE100A1F
:1018E00018EE100A04F084FC9FED2C0B53EC102B27
:1018F00004F080FB04F04CFB08EE100A264890ED43
:10190000000A30EE080A80ED000A006804F070FC5E
:1019100041EC190B53EC192B22A0FEF761FD200CB2
:1019200040EA05412814CAB20021104604F08EFC9A
:1019300020490860200A40EA05602912C2B200214D
:10194000104604F083FC08EE100A18EE100A04F0AA
:101950004FFC9FED120B53EC102B04F04BFB04F0EB
:1019600017FB08EE100A134890ED000A30EE080A43
:1019700080ED000A006804F03BFC41EC190B53ECCD
:10198000192B0DA0FEF72CFD200A40EA056090E718
:1019900000000000001802409C0100209A999999CB
:1019A0009999B93FCAAAB6C8A3BA252E32660D0ABC
:1019B0000000000098010020CEC2B6C8A3BA252EB0
:1019C00032660D0A000000007047000010B5FFF7F6
:1019D000EBFE024890ED000A10BD00009C010020C3
:1019E00010B5FFF7E1FE024890ED000A10BD0000BF
:1019F0009801002010B5024692F82030012B01D04A
:101A0000022B1CD101F0010028B11068806840F061
:101A100080001468A06001F0020028B1106880689E
:101A200040F400401468A06001F0040028B1106880
:101A3000806840F400001468A060002010BD506A67
:101A400040F4802050620120F8E7F0B504460D46CE
:101A50001E4694F8207020688368A86800B900E0EA
:101A600000BF012F01D0022F7CD103F0806030B97C
:101A700003F0006018B903F08050002873D0C3F35E
:101A80000161022905D9606A40F40000606201200A
:101A9000F0BD012088403060A86860B9B5F800C08A
:101AA000E86840EA4C5C206800F5C07000EB01106B
:101AB000C0F800C00FE0D5E901C040EACC00D5F87D
:101AC0000CC040EA0C00D4F800C00CF5C07C0CEB54
:101AD000011CCCF80000D5F810C0206800F5C070DB
:101AE00000EB0110C0F804C0287D01280ED1206849
:101AF00000F5C07000EB0110406840F4807C206865
:101B000000F5C07000EB0110C0F804C0D0790006E9
:101B100092F806C040EA0C4092F805C040EA0C2C4E
:101B200010794CEA000C206800F5C07000EB011041
:101B3000C0F80CC0D078000692F802C040EA0C4011
:101B400092F801C040EA0C2092F800C040EA0C0074
:101B5000D4F800C00CF5C07C0CEB011CCCF80800DC
:101B6000206801E016E00FE000F5C07000EB011006
:101B7000006840F0010C206800F5C07000EB011017
:101B8000C0F800C0002083E7606A40F40010606283
:101B900001207DE7606A40F480206062012077E7E1
:101BA000F0B504460A46216894F82050012D01D072
:101BB000022D7ED1424901F50071086840F0010014
:101BC0000860086820F47C5008600868566A40EA9B
:101BD00006200860107D00F01F06012000FA06F3C1
:101BE000C8699843C861A1F50071D069C8B9D1F836
:101BF0000C029843C1F80C02908880B2968940EAA2
:101C0000064601F51070576940F83760108880B2B9
:101C1000168940EA064601F51070576900EBC700C7
:101C20004660D069012819D1D1F80C021843C1F8D7
:101C30000C02908880B2168840EA064601F51070C2
:101C4000576940F83760908980B2168940EA0646A5
:101C500001F51070576900EBC7004660906928B91C
:101C6000D1F804029843C1F8040204E0D1F8040258
:101C70001843C1F80402106928B9D1F81402984336
:101C8000C1F8140204E0D1F814021843C1F8140298
:101C9000106A012804D1D1F81C021843C1F81C02B3
:101CA000D1F8000220F00100C1F800020020F0BDD0
:101CB000FFE7606A40F4802060620120F7E70000DF
:101CC0000064004010B50246002092F82030012B3D
:101CD00001D0022B09D121B91468E46804F0030093
:101CE00003E01468246904F0030010BD70B50446D5
:101CF00094F82050012D01D0022D7DD151B92068DA
:101D0000C06800F0030080B9606A40F400106062AF
:101D1000012070BD2068006900F0030028B9606AE6
:101D200040F4001060620120F3E7206800F5D870ED
:101D300000EB0110006800F004009060906840B96A
:101D4000206800F5D87000EB01100068400D1060AD
:101D500007E0206800F5D87000EB01100068C008AB
:101D60005060206800F5D87000EB0110006800F0AA
:101D70000200D060206800F5D87000EB01104068C8
:101D800000F00F001061206800F5D87000EB011022
:101D9000406800F47F40000A9061206800F5D87028
:101DA00000EB01104068000C5061206800F5D8700D
:101DB00000EB011080681870206800F5D87000EB07
:101DC0000110806800F47F40000A5870206800F518
:101DD000D87000EB0110806800F47F00000C987050
:101DE000206800F5D87000EB01108068000ED870F4
:101DF000206800F5D87000E02FE000EB0110C0680B
:101E00001871206800F5D87000EB0110C06800F46C
:101E10007F40000A5871206800F5D87000EB01106F
:101E2000C06800F47F00000C9871206800F5D8703D
:101E300000EB0110C068000ED87131B92068C0688D
:101E400040F020002668F06005E02068006940F05E
:101E500020002668306100205BE7606A40F4802043
:101E60006062012055E70146002091F82020012AF8
:101E700001D0022A11D10B689B6803F0806303B183
:101E8000401C0B689B6803F0006303B1401C0B68A7
:101E90009B6803F0805303B1401C704770B5044643
:101EA0000CB9012070BD94F8200010B9204600F054
:101EB000AFF82068006820F002002168086000F098
:101EC000AFFA05460DE000F0ABFA401B0A2808D92E
:101ED000606A40F400306062052084F82000012030
:101EE000E0E72068406800F002000028EBD120689D
:101EF000006840F001002168086000F091FA054692
:101F00000DE000F08DFA401B0A2808D9606A40F401
:101F100000306062052084F820000120C2E72068BC
:101F2000406800F001000028EBD0207E012806D197
:101F30002068006840F080002168086005E02068A3
:101F4000006820F0800021680860607E012806D1CA
:101F50002068006840F040002168086005E02068C3
:101F6000006820F0400021680860A07E012806D1AA
:101F70002068006840F020002168086005E02068C3
:101F8000006820F0200021680860E07E012806D16A
:101F90002068006820F010002168086005E02068D3
:101FA000006840F0100021680860207F012806D1F9
:101FB0002068006840F008002168086005E020689B
:101FC000006820F0080021680860607F012806D1C1
:101FD0002068006840F004002168086005E020687F
:101FE000006820F0040021680860D4E90201084379
:101FF00021690843616908436168491E08432168F3
:10200000C86100206062012084F82000002049E7B8
:1020100010B586B004462849206888424AD100BFDE
:1020200000BF002000902548006840F001002349CF
:1020300008600846006800F00100009000BF00BF83
:1020400000BF00BF00BF002000900846006840F0BD
:10205000010008600846006800F00100009000BF21
:1020600000BF00BF00BF002000901448103000687F
:1020700040F000701149103108600846006800F017
:102080000070009000BF00BF8814019002200290F1
:1020900001200390022004900920059001A908481E
:1020A00000F0A8F84FF40060019001A9044800F086
:1020B000A1F800BF06B010BD0064004030380240F7
:1020C0000000024070B5044694F82000012822D197
:1020D000022084F820002068006820F001002168B8
:1020E000086000F09DF905460DE000F099F9401BED
:1020F0000A2808D9606A40F400306062052084F83C
:102100002000012070BD2068406800F00100002818
:10211000EBD16062F6E7606A40F400206062012063
:10212000F0E770B50446A56D00F07AF9064694F81C
:102130003500022808D08020606500BF002084F8A8
:10214000340000BF012070BD2068006820F0160038
:10215000216808602068406920F08000216848619B
:10216000206C08B9A06C28B12068006820F0080035
:10217000216808602068006820F00100216808607C
:102180000FE000F04DF9801B05280AD9202060657A
:1021900000BF002084F8340000BF032084F835001D
:1021A000D1E72068006800F001000028E9D194F828
:1021B0005C103F208840A86000BF002084F83400F5
:1021C00000BF012084F835000020BCE7014691F8EB
:1021D0003500022803D08020486501207047052083
:1021E00081F835000868006820F001000A68106076
:1021F0000020F3E7F8B502460B4600250024002036
:102200000021DEE0012606FA01F51E6806EA050453
:10221000AC4275D11E7906F00306012E04D01E795A
:1022200006F00306022E13D190684F000326BE402D
:10223000B0434F00DE68BE403043906050680126D6
:102240008E40B0431E79C6F300168E403043506076
:102250001E7906F00306032E09D0D0684F0003262E
:10226000BE40B0434F009E68BE403043D0601E79F0
:1022700006F00306022E13D1CF0802F1200656F80D
:1022800027004E07F70E0F26BE40B0434F07FF0E44
:102290001E69BE403043CF0802F1200646F82700F1
:1022A00010684F000326BE40B0431E7906F00306B7
:1022B0004F00BE40304310605E6806F08056B6F1B5
:1022C000805F7DD100BF00260096404E366846F400
:1022D00080463E4F3E603E46366806F48046009695
:1022E00000BF00BF3A4E8F0856F827008E07370F01
:1022F0000F26BE40B043374EB24202D1002624E042
:102300005EE0354EB24201D101261EE0334EB242AC
:1023100001D1022619E0324EB24201D1032614E067
:10232000304EB24201D104260FE02F4EB24201D10D
:1023300005260AE02D4EB24201D1062605E02C4EBC
:10234000B24201D1072600E008268F073F0FBE40AA
:1023500030431F4E8F0846F82700264E3068A043B2
:102360005E6806F48036B6F5803F00D12043214EEA
:102370003060361D3068A0435E6806F40036B6F55E
:10238000003F00D120431B4E361D3060361D3068A3
:10239000A0435E6806F48016B6F5801F00D1204386
:1023A000144E08363060361D3068A0435E6806F46F
:1023B0000016B6F5001F00D120430E4E0C363060DB
:1023C000491C1029FFF41EAFF8BD0000443802403C
:1023D00008380140000002400004024000080240AA
:1023E000000C02400010024000140240001802409D
:1023F000001C0240003C0140024613690B400BB137
:10240000012000E0002070470AB1816101E00B0467
:102410008361704701480068000C7047002004E0A9
:102420000148006870470000100000200348006861
:1024300003490978084401490860704710000020EA
:102440001800002010B50A48006840F400700849E0
:1024500008600846006840F480600860052000F0CD
:102460007FF80F2000F006F800F02AF8002010BDD9
:10247000003C024070B504460E4800784FF47A7173
:10248000B1FBF0F00C490968B1FBF0F5284600F00B
:1024900009FC08B1012070BD102C07D20022214692
:1024A000501E00F01EF80548046001E00120F2E72C
:1024B0000020F0E718000020000000201400002099
:1024C000704701460846002809DB00F01F0301227F
:1024D0009A4043099B0003F1E023C3F8002100BFA9
:1024E00070472DE9F05F80460D461646002701F043
:1024F00003FF074639462A46334601F00700C0F17C
:10250000070ABAF1040F02D94FF0040A01E0C0F142
:10251000070AD14600F1040ABAF1070F02D24FF0C0
:10252000000A01E0A0F1030AD4464FF0010A0AFABA
:1025300009FAAAF1010A0AEA020A0AFA0CFA4FF0A9
:10254000010B0BFA0CFBABF1010B0BEA030B4AEA94
:102550000B042146404601F0D7FEBDE8F09F000085
:1025600000BF00F00702064B19684FF6FF03194041
:10257000044B0B4343EA0221014B196000BF704733
:102580000CED00E00000FA0570B504460D460CB9EC
:10259000012070BD5848006800F00700A84209D229
:1025A00055490D700846006800F00700A84201D0A8
:1025B0000120EEE7207800F0020002281DD12078EB
:1025C00000F00400042805D14C48006840F4E050B5
:1025D0004A490860207800F00800082805D14748DB
:1025E000006840F46040454908604448006820F0B5
:1025F000F000A168084341490860207800F001001C
:10260000A8B36068012807D13C4808380068C0F3C7
:102610004040B8B90120BCE76068022802D0606879
:10262000032807D1354808380068C0F3406048B92E
:102630000120AEE7314808380068C0F3400008B90F
:102640000120A6E72D48006820F0030061680843D8
:102650002A490860FFF7E4FE064609E0FFF7E0FEBE
:10266000801B41F28831884202D9032091E707E0BC
:102670002248006800F00C006168B0EB810FEDD1DA
:102680001D48006800F00700A84209D91A490D70DA
:102690000846006800F00700A84201D0012078E752
:1026A000207800F00400042807D11448006820F4C2
:1026B000E050E168084311490860207800F0080004
:1026C000082808D10D48006820F46040216940EADC
:1026D000C1000A49086000F03FF808490968C1F3E1
:1026E0000311074A515CC840064908600648006863
:1026F000FFF7C0FE00204CE7003C024008380240D3
:102700004A6300080000002014000020014800680F
:10271000704700000000002000B5FFF7F7FF0449F4
:102720000968C1F38221034A515CC84000BD000022
:10273000083802405A63000800B5FFF7E7FF044974
:102740000968C1F34231034A515CC84000BD000032
:10275000083802405A6300082DE9F047002400259C
:102760000026A1462548006800F00C0020B104288E
:1027700005D008283AD105E0DFF8849039E0DFF889
:10278000849036E01D48001F006800F03F041B489D
:10279000001F006800F4800078B11A481749091F2B
:1027A0000968C1F38811A0FB01700146224600238D
:1027B0003846FDF79EFD05460EE011480F49091FFA
:1027C0000968C1F38811A0FB01700146224600236D
:1027D0003846FDF78EFD05460848001F0068C0F327
:1027E0000140401C4600B5FBF6F902E0DFF810900E
:1027F00000BF00BF4846BDE8F0870000083802402F
:102800000024F40000127A00F8B504460CB9012047
:10281000F8BD207800F00100002874D0F948006865
:1028200000F00C0004280DD0F648006800F00C0001
:10283000082813D1F348001F006800F48000B0F5A9
:10284000800F0BD1EF4808380068C0F340400028E3
:1028500059D06068002856D10120D9E700BF6068D0
:10286000B0F5803F08D1E7480838006840F4803070
:10287000E449083908601EE06068B0F5A02F0DD16A
:10288000E0480838006840F48020DE4908390860D4
:102890000846006840F4803008600CE0D9480838E9
:1028A000006820F48030D74908390860084600687D
:1028B00020F48020086000BF606890B1FFF7B0FD91
:1028C000054606E0FFF7ACFD401B642801D9032054
:1028D0009EE7CC4808380068C0F340400028F1D09B
:1028E00011E0FFF79DFD054606E0FFF799FD401B4F
:1028F000642801D903208BE7C24808380068C0F378
:1029000040400028F1D1207800F0020002285FD179
:10291000BC48006800F00C0058B1BA48006800F0EC
:102920000C0008281CD1B748001F006800F4800084
:10293000B0B9B44808380068C0F3400020B1E0687E
:10294000012801D0012063E7AE480838006820F074
:10295000F800216940EAC100AA490839086037E057
:10296000E06800B30120A8490860FFF759FD05465B
:1029700006E0FFF755FD401B022801D9032047E779
:10298000A04808380068C0F340000028F1D09D48F6
:102990000838006820F0F800216940EAC100994930
:1029A0000839086014E0002097490860FFF738FDF7
:1029B000054606E0FFF734FD401B022801D903203D
:1029C00026E7904808380068C0F340000028F1D19D
:1029D000207800F0080008282CD16069A8B10120F7
:1029E0008A490860FFF71CFD054606E0FFF718FD61
:1029F000401B022801D903200AE782486C30006896
:102A0000C0F340000028F1D014E000207F490860A6
:102A1000FFF706FD054606E0FFF702FD401B022812
:102A200001D90320F4E677486C300068C0F3400019
:102A30000028F1D1207800F00400042870D100278C
:102A400070483830006800F0805090B900BF002016
:102A500000906C483830006840F080506949383147
:102A600008600846006800F08050009000BF00BF7A
:102A700001276748006800F48070B0B964480068B6
:102A800040F4807062490860FFF7CAFC054606E022
:102A9000FFF7C6FC401B022801D90320B8E65C48BA
:102AA000006800F480700028F2D000BFA068012800
:102AB00008D154486830006840F00100514968313D
:102AC00008601DE0A06805280DD14E4868300068F8
:102AD00040F004004B49683108600846006840F047
:102AE000010008600CE047486830006820F00100F1
:102AF0004449683108600846006820F00400086016
:102B000000BFA068A8B1FFF78BFC054609E0FFF7FE
:102B100087FC401B41F28831884202D9032077E6C6
:102B200026E0384868300068C0F340000028EED046
:102B300013E0FFF775FC054608E0FFF771FC401B4A
:102B400041F28831884201D9032061E62D4868307E
:102B50000068C0F340000028EFD1012F07D12948B9
:102B60003830006820F0805026493831086000BFB6
:102B7000A069002845D02348006800F00C00082810
:102B80005DD0A069022845D100201F490866FFF7E3
:102B900047FC054606E0FFF743FC401B022801D92D
:102BA000032035E6174808380068C0F34060002865
:102BB000F1D1D4E907010843616A40EA8111012299
:102BC000A06AC2EB500041EA00412C20005D41EABE
:102BD00000600C49091F086001200B490866FFF7D7
:102BE0001FFC054606E0FFF71BFC401B022801D92D
:102BF00003200DE6034808380068C0F34060002851
:102C0000F1D049E00838024000004742800E4742B8
:102C100000700040002021490866FFF701FC0546CE
:102C200006E0FFF7FDFB401B022801D90320EFE57A
:102C30001B480068C0F340600028F2D12CE0A06976
:102C4000012800D1E4E51648001D0668A0690128A6
:102C500020D006F48001E06981421BD106F03F01DB
:102C6000206A814216D147F6C0703040616AB0EBED
:102C7000811F0FD106F440310122A06AC2EB50003F
:102C8000B1EB004F06D106F070612C20005DB1EB76
:102C9000006F01D00120BBE50020B9E500004742EC
:102CA0000038024070B504462546681EB0F1807FAA
:102CB00001D301200FE0681E4FF0E02148610F2191
:102CC0004FF0FF3001F020FB00204FF0E021886141
:102CD00007200861002070BD10B504460CB9012022
:102CE00010BD94F83D0028B9002084F83C0020462F
:102CF00000F025F8022084F83D00211D206801F035
:102D000015F8012084F8460000BF84F83E00012138
:102D10003F200155402001554120015500BF00BF13
:102D2000012084F8420043200155442001554520EC
:102D3000015500BF012084F83D000020D0E7704716
:102D4000014691F83D00012801D001207047022082
:102D500081F83D000868C06840F001000B68D86049
:102D60001A4B086898421BD00868B0F1804F17D002
:102D7000174B0868984213D0164B086898420FD03A
:102D8000154B086898420BD0144B0868984207D03E
:102D9000134B0868984203D0124B086898420CD134
:102DA0000868806800F00702062A0CD008680068EE
:102DB00040F001000B68186005E00868006840F00A
:102DC00001000B6818600020C0E70000000001400F
:102DD0000004004000080040000C004000040140D6
:102DE0000040014000180040704770472DE9F84F3F
:102DF0000446206805682068C668206847694FF067
:102E00000009CA4605F00F09B9F1000F0AD105F013
:102E1000200038B106F0200020B1204601F02FF844
:102E2000BDE8F88FB9F1000F72D007F0010018B9B2
:102E300006F4907000286BD005F0010030B106F464
:102E4000807018B1206C40F00100206405F004008F
:102E500030B107F0010018B1206C40F0020020648E
:102E600005F0020030B107F0010018B1206C40F00D
:102E70000400206405F0080048B106F0200010B9F5
:102E800007F0010018B1206C40F008002064206CAD
:102E900070B305F0200028B106F0200010B12046E4
:102EA00000F0EDFF20684069C0F3801A206C00F04C
:102EB000080010B9BAF1000F23D0204600F0B4FF8B
:102EC0002068406900F04000402816D12068406921
:102ED00020F0400021684861A06B50B15648A16BBA
:102EE0000865A06BFFF772F910B1A06B016D884700
:102EF0000CE02046FFF779FF08E02046FFF775FF5A
:102F000004E02046FFF771FF0020206488E7FFE718
:102F1000206B012879D105F01000002875D006F04B
:102F20001000002871D000BF0020009020680068C9
:102F3000009020684068009000BF00BF2068406992
:102F400000F04000402839D1A06B006840681FFAAB
:102F500080F8B8F1000F30D0A08D40452DDDA4F8E9
:102F60002E80A06BC069B0F5807F1FD02068C0683C
:102F700020F480702168C8602068406920F001005A
:102F8000216848612068406920F04000216848615C
:102F9000202084F83E00002020632068C06820F0D4
:102FA00010002168C860A06BFFF7BBF8A08DE28D10
:102FB000801A81B22046FFF717FF31E7A08DE18D1F
:102FC000401A1FFA80F8E08DE8B1B8F1000F1AD06E
:102FD0002068C06820F490702168C860206840694B
:102FE00020F0010021684861202084F83E00002084
:102FF00020632068C06820F010002168C860414646
:103000002046FFF7F1FE0BE7FFE705F0800030B147
:1030100006F0800018B1204601F0C9F800E705F07D
:10302000400030B106F0400018B1204600F017FF14
:10303000F6E600BFF4E60000153E000810B50446B1
:103040000CB9012010BDA06900B100E000BF94F8E8
:103050003D0028B9002084F83C00204600F028F804
:10306000242084F83D002068C06820F400502168C6
:10307000C860204600F062FF2068006920F490409C
:10308000216808612068406920F02A0021684861B1
:103090002068C06840F400502168C86000202064A7
:1030A000202084F83D0084F83E000020CAE700009C
:1030B00010B586B004462D492068884254D100BF1F
:1030C00000BF002000902A48006840F48010284982
:1030D00008600846006800F48010009000BF00BF40
:1030E00000BF00BF00BF00200090214810380068DA
:1030F00040F004001E49103908600846006800F0DE
:103100000400009000BF00BF00BF00BF00BF002050
:1031100000900846006840F0080008600846006813
:1031200000F00800009000BF00BF00BF88140190AD
:1031300002200290012003900220049008200590B4
:1031400001A90C48FFF756F80420019008200590CB
:1031500001A90948FFF74EF83520FFF7B2F903221D
:1031600011463520FFF7BDF906B010BD00500040F4
:103170004038024000080240000C02402DE9F84FA0
:1031800004460E46174699464FF0000A94F83E0052
:1031900020285FD106B117B90120BDE8F88F00BF24
:1031A00094F83C00012801D10220F6E7012084F8C0
:1031B0003C0000BF00202064222084F83E00002054
:1031C0002063FFF72DF98246A785E785A068B0F553
:1031D000805F04D1206910B90025B04602E0354671
:1031E0004FF0000800BF002084F83C0000BF29E039
:1031F0005346002220212046CDF8009001F007F828
:1032000008B10320C9E745B920684068C0F3080049
:10321000A8F8000008F1020811E0A068B0F5805F8E
:1032200003D0A06828B9206918B9206840682870C0
:1032300004E02068406800F07F0028706D1CE08D7D
:10324000401EE085E08D0028D2D1202084F83E0089
:103250000020A2E70220A0E770B504460D461646FE
:1032600094F83E00202816D105B10EB9012070BD9A
:1032700000BF94F83C00012801D10220F7E70120AB
:1032800084F83C0000BF00202063324629462046D7
:1032900000F06AFFEBE70220E9E7000010B5044602
:1032A0002049206888423BD11F48008800F4004034
:1032B00088BB1D48008800F4804070B11B4800782E
:1032C0000A2803D000201849088024E01648008806
:1032D00040F40040144908801DE0144800780D288F
:1032E00006D11148008840F480400F49088012E060
:1032F0000E4800780C490988C1F30D010C4A50545E
:1033000009480088401C0849088008460088C728EA
:1033100001DD00200880012204490648FFF79CFFD8
:1033200010BD0000005000400C0000200E000020E6
:10333000AC01002074020020704700BFFEE700BF10
:10334000FEE738B504460D460DB9012038BD201200
:103350008DF80000E0B28DF8010000208DF8020029
:103360008DF803500422694640F2FF7001F048F8DE
:10337000ECE77047704700002DE9F04F2DED068B0C
:1033800085B006460C46904600250027A946AA4669
:10339000AB4640F2FF713068884253D1A0780128D3
:1033A00008D0F2A03168FDF71BF805B0BDEC068B24
:1033B000BDE8F08F2078FF2811D16078FF280ED16A
:1033C0002079E17840EA0120F44908800120C870A2
:1033D0000846C2780188F2A0FDF702F8CAE3207817
:1033E00080280ED1607880280BD10020EB4908801E
:1033F0008020C8700846C2780188F3A0FCF7F0FF6F
:10340000B8E320787F280ED160787F280BD1012087
:10341000E24908800520C8700846C2780188F7A0F4
:10342000FCF7DEFFA6E36078217840EA0120DB4963
:103430000880E078C8700846C2780188D8A0FCF7F8
:10344000CFFF97E3B8F1000F7ED120784711307895
:10345000401EC5B23088F649088005EBC500F54925
:1034600001EBC0008583207800F01F0005EBC5014B
:10347000F04A02EBC101C877012F66D1A0786178CC
:1034800040EA0129E0780001217940EA111A6079C7
:10349000217901F00F0140EA012B1021F2EE090A17
:1034A000BAEE090A484601F041FC05EBC500E149C6
:1034B00001EBC00080ED050A0C21F3EE020ABBEE21
:1034C000020A504601F032FC05EBC500D94901EB78
:1034D000C00080ED030A0C21F3EE0E0ABBEE0E0ACB
:1034E000584601F023FC05EBC500D24901EBC000B2
:1034F00080ED0A0AA179A1F1320000EBD071C1F38D
:10350000470105EBC502CB4B03EBC202917705EBFC
:10351000C5001A4602EBC00090ED0A0A10EE101A20
:10352000084602F065FE41EC180B05EBC500C14AE8
:1035300002EBC00090ED030A10EE101A084602F0EC
:1035400057FE41EC190B01E0C1E21FE005EBC5009D
:10355000B84A02EBC00090ED050A10EE101A0846BA
:1035600002F046FE41EC1A0B05EBC500B14901EB38
:10357000C000807F04908DED028B8DED009B53EC9D
:103580001A2B2946AC48FCF72BFFF3E2022F6BD134
:103590002079AA490870E0784870A078887060782F
:1035A000C870084690ED000A05EBC500A14901EB83
:1035B000C00080ED080AA079617940EA012000B2DC
:1035C00005EBC5019B4A02EBC1010881E179A1F13C
:1035D000320000EBD071C1F3470105EBC502954BFA
:1035E00003EBC202917705EBC500194601EBC00061
:1035F000B0F9080000EE100AB8EEC00ADFED900A3C
:1036000080EE201A05EBC50001EBC00080ED0A1A20
:1036100005EBC5000A4602EBC00090ED0A0A10EE69
:10362000101A084602F0E4FD41EC180B05EBC5004A
:10363000804A02EBC00090ED080A10EE101A08460E
:1036400002F0D6FD41EC190B05EBC500794901EB01
:10365000C000807F02908DED008B53EC192B294622
:103660007848FCF7BDFE85E2032F6BD120797349C2
:103670000870E0784870A07888706078C870084654
:1036800090ED000A05EBC5006A4901EBC00080ED32
:10369000090AA079617940EA012000B205EBC50171
:1036A000644A02EBC1010881E179A1F1320000EB2B
:1036B000D071C1F3470105EBC5025E4B03EBC202BB
:1036C000917705EBC500194601EBC000B0F9080081
:1036D00000EE100AB8EEC00ADFED590A80EE201A9B
:1036E00005EBC50001EBC00080ED0A1A05EBC50033
:1036F0000A4602EBC00090ED0A0A10EE101A0846C6
:1037000002F076FD41EC180B05EBC500494A02EBCF
:10371000C00090ED090A10EE101A084602F068FD8C
:1037200041EC190B05EBC500424901EBC000807F5D
:1037300002908DED008B53EC192B29464248FCF783
:103740004FFE17E2042F10D13069032800D02CE679
:10375000607812498870A078C8700846C37882786B
:1037600029463A48FCF73CFE04E271E04E6F7420B3
:1037700061206D6F746F7220666565646261636B52
:1037800020696E737472756374696F6E2E20537442
:103790006449643A20307825580A0000A6010020C8
:1037A0004D6F746F72204944207365743A203078ED
:1037B00025582C204D6F746F72204642443A2030B9
:1037C0007825580A00000000496E717569726520FD
:1037D0006661696C65642E204D6F746F7220494478
:1037E0003A20307825582C204D6F746F7220464255
:1037F000443A20307825580A00000000526573656D
:103800007420494420737563636565642E204D6F91
:10381000746F722049443A20307825582C204D6F1F
:10382000746F72204642443A20307825580A0000CE
:10383000AA010020B804002034680008A00100207C
:103840000000C842E06700088C6700089C68000818
:10385000052F89D16078C84988700846807801288A
:103860002AD13069062827D16079C44908702079A7
:103870004870E0788870A078C870084690ED000A1B
:1038800005EBC500BE4901EBC00080ED080A05EB61
:10389000C5000A4602EBC00090ED080A10EE101AAF
:1038A000084602F0A5FC41EC180B53EC182B2946F6
:1038B000B4A0FCF795FD5DE1AF48807802282AD1DD
:1038C0003069062827D16079AC49087020794870A2
:1038D000E0788870A078C870084690ED000A05EB83
:1038E000C500A74901EBC00080ED090A05EBC50042
:1038F0000A4602EBC00090ED090A10EE101A0846C5
:1039000002F076FC41EC180B53EC182B2946ACA0C6
:10391000FCF766FD2EE198488078032816D13069BF
:10392000062813D160799549087020794870E078AD
:103930008870A078C870084690ED000A05EBC500B5
:103940008F4901EBC00080ED0A0A13E18A488078B4
:1039500004282AD13069062827D160798749087060
:1039600020794870E0788870A078C870084690ED9B
:10397000000A05EBC500824901EBC00080ED0E0A8C
:1039800005EBC5000A4602EBC00090ED0A0A10EEF6
:10399000101A084602F02CFC41EC180B53EC182BC3
:1039A000294696A0FCF71CFDE4E0734880780528C2
:1039B00017D13069042814D1E078A17840EA0120B9
:1039C00005EBC5016E4A02EBC101888705EBC50016
:1039D000114601EBC000828F29469848FCF700FD94
:1039E000C8E065488078062817D13069042814D1CA
:1039F000E078A17840EA012005EBC501604A02EBBE
:103A0000C101C88705EBC500114601EBC000C28F9C
:103A100029468B48FCF7E4FCACE05748807807283F
:103A200019D13069042816D1E078A17840EA012044
:103A300005EBC501524A02EBC101A1F8400005EBBC
:103A4000C500114601EBC000B0F8402029467DA01A
:103A5000FCF7C6FC8EE048488078082819D1306908
:103A6000042816D1E078A17840EA012005EBC501D1
:103A7000434A02EBC101A1F8420005EBC500114623
:103A800001EBC000B0F8422029467E48FCF7A8FCB4
:103A900070E03948807809286CD13069042869D1F0
:103AA000E078A17840EA012005EBC501344A02EB39
:103AB000C101A1F8440005EBC500114601EBC000AF
:103AC000B0F8442029467048FCF78AFC52E0B8F16F
:103AD000010F4FD13078401FC5B26078217840EA9D
:103AE000012005EBC501264A22F83100E078A178D3
:103AF00040EA012000B205EBC50102EBC10188805C
:103B00006079217940EA012000B205EBC50102EBA2
:103B1000C1010881A07905EBC50102EBC1018877DD
:103B2000E07905EBC50102EBC101C87705EBC500E3
:103B3000114601EBC000C07F05EBC50102EBC101DE
:103B4000897F05EBC5020E4B03EBC202B2F90820D8
:103B5000CDE90021029005EBC500194601EBC0003C
:103B6000B0F9043005EBC50031F83020294647484C
:103B7000FCF736FC00BF18E4A6010020A0010020DD
:103B8000B8040020526573706F6E736520667261B1
:103B90006D652035202D2047657420706F73697422
:103BA000696F6E2E204D6F746F722049443A203039
:103BB0007825582C20416E676C653A2025660A00EE
:103BC000526573706F6E7365206672616D65203526
:103BD000202D204765742073706565642E204D6F1D
:103BE000746F722049443A20307825582C20537045
:103BF0006565643A2025660A00000000526573700E
:103C00006F6E7365206672616D652035202D2047CB
:103C100065742063757272656E742E204D6F746FBB
:103C2000722049443A20307825582C20437572720E
:103C3000656E743A20256620410A0000286A000853
:103C40009C690008526573706F6E736520667261BF
:103C50006D652035202D204765742073706565647F
:103C60005F4B492E204D6F746F722049443A2030CB
:103C70007825582C205370656564204B493A2025DF
:103C8000640A0000E069000854690008E068000860
:103C9000704710B5FEF7CAFB10BD0000034800686E
:103CA00040F47000014908607047000088ED00E0B2
:103CB00005480068006900F0010020B16FF00100C4
:103CC00001490968086170475C03002005480068E5
:103CD000006900F0010020B16FF00100014909689E
:103CE00008617047A403002010B50E480068C06842
:103CF00000F0010078B10C490869804700200949AB
:103D00000968486200BF642006490968C8626421E6
:103D10000448C16000BF6FF00100024909680861F2
:103D200010BD000014030020A000002010B50268A0
:103D3000294B98420ED0B0F1804F0BD0274B9842C0
:103D400008D0274B984205D0264B984202D0264BEC
:103D5000984203D122F070024B681A431E4B9842DE
:103D600020D0B0F1804F1DD01C4B98421AD01C4B74
:103D7000984217D01B4B984214D01B4B984211D03D
:103D80001A4B98420ED01A4B98420BD0194B9842BE
:103D900008D0194B984205D0184B984202D0184BC6
:103DA000984203D122F44072CB681A4322F0800378
:103DB0004C6943EA040202608B68C3620B68836249
:103DC000054B984202D0084B984201D10B6903631E
:103DD0000123436110BD00000000014000040040C9
:103DE00000080040000C0040000401400040014079
:103DF000004401400048014000180040001C004001
:103E00000020004010B50248FEF7F0FF10BD000092
:103E10007402002070B50546AC6B0020E085E0849C
:103E20002046FEF7E2FF70BD0168C96821F4907179
:103E30000268D1600168496921F00101026851619D
:103E4000016B012905D10168C96821F010010268E0
:103E5000D160202180F83E1000210163704710B529
:103E600004462068C06820F040002168C860202017
:103E700084F83D002046FFF75FFA002010BD70B5C2
:103E8000044694F83E00222856D1A068B0F5805F21
:103E90000CD1206950B90025A66A20684068C0F39B
:103EA00008003080A06A801CA06215E0A56A002688
:103EB000A068B0F5805F03D0A06828B9206918B960
:103EC00020684068287004E02068406800F07F00A7
:103ED0002870A06A401CA062E08D401E80B2E08580
:103EE00040BB2068C06820F020002168C8602068BE
:103EF000C06820F480702168C8602068406920F0A4
:103F0000010021684861202084F83E00206B0128D0
:103F10000AD12068C06820F010002168C860A18D17
:103F20002046FEF761FF02E02046FFF7B7F90020C8
:103F3000206370BD0020FCE70220FAE72DE9F84F6E
:103F400004462068006920F44050E1680843216875
:103F500008612169A068084361690843E169084371
:103F600000902068C06849F20C61884300990843BA
:103F70002168C8602068406920F44070A169084346
:103F80002168486176492068884203D075492068D5
:103F9000884203D1FEF7D0FB814602E0FEF7BCFB6E
:103FA0008146E069B0F5004F6CD102206168A0FB4A
:103FB000015003461920A9FB007001462A463846E5
:103FC000FCF797F96421B0FBF1F04FEA001A0220E8
:103FD0006168A0FB01510B461920A9FB00712A461C
:103FE0003846FCF786F9834602206168A0FB015041
:103FF00003461920A9FB00712A463846FCF779F9D7
:104000006421B0FBF1F000EBC00101EB0010ABEB61
:104010008000322101EBC0006421B0FBF1F000F020
:10402000F8000AEB400A02206168A0FB0150034639
:104030001920A9FB007001462A463846FCF759F9B9
:10404000834602206168A0FB015003461920A9FBAA
:1040500000712A463846FCF74CF96421B0FBF1F0B8
:1040600000EBC00101EB0010ABEB8000322101EB53
:10407000C0006421B0FBF1F000F00700504421685B
:1040800088606AE004206168A0FB015003461920A3
:10409000A9FB007001462A463846FCF72AF98246F9
:1040A00004206168A0FB015003461920A9FB0070A1
:1040B00001462A463846FCF71CF96421B0FBF1F0B2
:1040C00000EBC00101EB0010AAEB8000322101EBF4
:1040D00000106421B0FBF1F000F0F00A04206168E8
:1040E000A0FB017003461920A9FB00513A4628465F
:1040F000FCF7FFF86421B0FBF1F00AEB001A042092
:104100006168A0FB01510B461920A9FB00712A46EA
:104110003846FCF7EEF8834604206168A0FB0150A6
:1041200003461920A9FB007001462A463846FCF7D1
:10413000E0F86421B0FBF1F000EBC00101EB0010EE
:10414000ABEB8000322101EB00106421B0FBF1F0F9
:1041500000F00F00504421688860BDE8F88F00002F
:10416000001001400014014010B5034699629A8581
:10417000DA8500201864222083F83E0000BF00206A
:1041800083F83C0000BF1868C06840F480701C6869
:10419000E0601868406940F001001C6860611868C0
:1041A000C06840F020001C68E060002010BD01469F
:1041B00091F83D00212828D18868B0F5805F0BD1A7
:1041C000086948B90A6A1088C0F308000B6858608B
:1041D000086A801C086205E00B6A581C086218789F
:1041E0000B685860C88C401E80B2C88458B90868F3
:1041F000C06820F080000B68D8600868C06840F094
:1042000040000B68D860002070470220FCE72DE9D1
:10421000F04104460D4617469846069E21E0701C64
:10422000F8B12EB1FEF7FCF8A0EB0800B04218D9A7
:104230002068C06820F4D0702168C8602068406998
:1042400020F0010021684861202084F83D0084F8B6
:104250003E0000BF002084F83C0000BF0320BDE802
:10426000F081206800682840A84201D1012000E0C8
:104270000020B842D3D00020F1E7000008B50E4876
:1042800000680068C0F34010A8B14FF47A730122AF
:1042900069460948FEF772FF0848007840280ADAA4
:1042A0009DF800000649054A1278885403480078B2
:1042B000401C0249087008BD34040020940100200D
:1042C0007804002000BFFEE703B401984100009885
:1042D00050EAC12018BF04204A0D18BF40F0010069
:1042E00040F2FF72B2EB515F08BF40F002000128BC
:1042F00008BF052002B0704702480068C0F30220E2
:10430000704700000CED00E010B5002804DB0A0740
:10431000130E054A135406E00A07140E034A00F070
:104320000F031B1FD45410BD00E400E018ED00E0A3
:1043300030380A2801D2012070470020704700BFA2
:10434000704700002DE9F0418AB004460D4616463C
:104350001F46DDF840801B481B490860084647603F
:10436000C0F80880C460066145610021017641768D
:1043700081760121C176002101774177FDF78EFD1D
:1043800018B101200AB0BDE8F08100200590069028
:10439000012007900020009001900290039004906B
:1043A0000120089069460848FDF7FAFB08B1022091
:1043B000E8E70548FDF786FE08B10320E2E70020A4
:1043C000E0E7000000640040B802002070B5054638
:1043D0000C4600210848FDF775FC08B9002070BDA7
:1043E0002346064A00210448FDF780FC08B100205E
:1043F000F5E70248007CF2E7B8020020F80200204E
:10440000F8B504460D4616460027012000901248D4
:1044100004604460002010498860C8600846066156
:104420006B462A460D48FDF710FB08B10120F8BD88
:104430000AE0781C87B2B7F5805F05DB0748009972
:10444000FDF7D8FA0120F2E70448FDF70CFD032838
:10445000EFD10020EBE70000E0020020B8020020CE
:1044600001490860704700000400002010B50446B0
:104470004FF47A7104FB01F000F00AF810BD10B59A
:1044800004464FF47A7104FB01F000F025F810BDEA
:1044900070B5034600224FF0E02675690D4E366870
:1044A00003FB06F44FF0E026B16910E04FF0E02680
:1044B000B06988420BD0884202D20E1A324402E020
:1044C0002E1A0E4432440146A24200D300E0EDE72A
:1044D00000BF70BD0400002070B503460022114DDE
:1044E0002D68114EB5FBF6F505FB03F44FF0E02502
:1044F000A96913E04FF0E025A86988420ED08842F0
:1045000002D20D1A2A4405E04FF0E0256D692D1AFC
:104510000D442A440146A24200D300E0EAE700BF6E
:1045200070BD00000000002040420F00014671EE07
:10453000602AF0EE621AB0EE602A30EE423A0120B4
:104540008840401E02EE900AF8EEE22A63EE222A2C
:1045500082EEA13AFDEEC32A12EE900A70470000E7
:1045600000BF054A126802F04002002AF9D0C2B228
:10457000014B5A60704700000050004038B50446B7
:104580000D4600BF00BF002000901248006840F0B8
:104590000100104908600846006800F00100009022
:1045A00000BF00BF00BF08060B4908600846456011
:1045B00000218160C460FEF78FFB032211461C209E
:1045C000FDF78FFF1C20FDF77CFF0348FEF7B8FBCB
:1045D00038BD0000403802405C03002038B5044676
:1045E0000D4600BF00BF002000901248006840F058
:1045F0000200104908600846006800F002000090C0
:1046000000BF00BF00BF0C480C4908600846456069
:1046100000218160C460FEF75FFB022211461D206D
:10462000FDF75FFF1D20FDF74CFF0448FEF788FBF8
:1046300038BD00004038024000040040A4030020C0
:1046400000B587B000BF00BF00200190324800686D
:1046500040F02000304908600846006800F0200063
:10466000019000BF00BF00BF00BF00BF002001904D
:104670000846006840F0200008600846006800F026
:104680002000019000BF00BF00BF00BF00BF00209E
:1046900001900846006840F0100008600846006875
:1046A00000F01000019000BF00BF00BF4FF40050A9
:1046B00002900120039004900220059002A917485F
:1046C000FDF798FD4FF48040029002A91348FDF7D2
:1046D00091FD4FF40070029001200390049002209D
:1046E000059002A90E48FDF785FD00224FF40071E8
:1046F0000B48FDF789FE00BF012251030748FDF773
:1047000083FE00BF00BF012291030448FDF77CFE39
:1047100000BF07B000BD0000303802400014024066
:10472000001002400EB500BF00BF0723022208217F
:104730004FF4A87000F08CFAFDF784FE42F2D0012D
:1047400040F2CF70FFF71AFF42F2D00141F28730FA
:10475000FFF744FFA820FFF783FE4FF4E13000F09D
:10476000FFFA2C48416854208847FFF769FF002072
:1047700007234FF4403201460090FFF7E3FD48E085
:1047800001A90120FFF722FE0446002C40D0224858
:10479000016822A0FBF724FE1F48816821A0FBF7D7
:1047A0001FFE1D48C16822A0FBF71AFE1A480169C6
:1047B00022A0FBF715FE9DF8041023A0FBF710FEC6
:1047C0009DF8051024A0FBF70BFE9DF8061026A00F
:1047D000FBF706FE9DF8071027A0FBF701FE9DF8EA
:1047E000081029A0FBF7FCFD9DF809102AA0FBF793
:1047F000F7FD9DF80A102CA0FBF7F2FD9DF80B10B9
:104800002DA0FBF7EDFD002201A90348FEF7B4FD42
:1048100000BFB5E7A0000020F802002069643A2537
:10482000640D0A006964653A25640D0A0000000001
:104830007274723A25640D0A000000006C656E3ACD
:1048400025640D0A0000000072786275665B305DB9
:104850003A25640D0A00000072786275665B315D6E
:104860003A25640D0A00000072786275665B325D5D
:104870003A25640D0A00000072786275665B335D4C
:104880003A25640D0A00000072786275665B345D3B
:104890003A25640D0A00000072786275665B355D2A
:1048A0003A25640D0A00000072786275665B365D19
:1048B0003A25640D0A00000072786275665B375D08
:1048C0003A25640D0A0000000146086870470000A0
:1048D0002DE9F0432DED068B83B08146B0EE40AA62
:1048E000B0EE608AF0EE418AB0EE619AF0EE429A44
:1048F0009FED670AB4EEC0AAF1EE10FA04DD9FED59
:10490000640AB0EE40AA08E0B5EEC0AAF1EE10FAD3
:1049100003D29FED600AB0EE40AAB1EE040AB4EEF5
:10492000C08AF1EE10FA04DDB1EE040AB0EE408A5E
:1049300008E0B5EEC08AF1EE10FA03D29FED550AF9
:10494000B0EE408AB2EE090AF4EEC08AF1EE10FA37
:1049500004DDB2EE090AF0EE408A0AE0BAEE090A76
:10496000F4EEC08AF1EE10FA03D2BAEE090AF0EEC4
:10497000408AB3EE020AB4EEC09AF1EE10FA04DDFA
:10498000B3EE020AB0EE409A0AE0BBEE020AB4EEC1
:10499000C09AF1EE10FA03D2BBEE020AB0EE409AD2
:1049A000B3EE0E0AF4EEC09AF1EE10FA04DDB3EEA7
:1049B0000E0AF0EE409A0AE0BBEE0E0AF4EEC09A40
:1049C000F1EE10FA03D2BBEE0E0AF0EE409A0C2084
:1049D0009FED2F1ADFED2F0AB0EE4A0AFFF7A6FD72
:1049E00005460920B1EE041ADFED2A0AB0EE480AA6
:1049F000FFF79CFD06461020B2EE091AFAEE090AEE
:104A0000B0EE680AFFF792FD07460C20B3EE021ADB
:104A1000FBEE020AB0EE490AFFF788FD04460C20BF
:104A2000B3EE0E1AFBEE0E0AB0EE690AFFF77EFD3A
:104A30008046002040EAE510C0B28DF8040005F081
:104A40007F00C6F3002141EA40008DF80500F0B276
:104A50008DF80600380A8DF80700F8B28DF80800C6
:104A6000C4F307108DF80900200140EA2820C0B2E5
:104A70008DF80A0008F0FF008DF80B00082201A94C
:104A80004846FFF7BDFC03B0BDEC068BBDE8F083E4
:104A90000000FA43000000002DE9FC4781460C4667
:104AA00015461E46DDE90A78002040EAE410C0B24F
:104AB0008DF8000004F07F00C5F3002141EA4000BA
:104AC0008DF80100E8B28DF8020030128DF8030075
:104AD000F0B28DF80400C7F307108DF80500380711
:104AE000000E40EA28208DF8060008F0FF008DF83F
:104AF0000700082269464846FFF782FCBDE8FC87AC
:104B000038B505460C46C0208DF800000B208DF806
:104B1000010020128DF80200E0B28DF8030004229B
:104B200069462846FFF76CFC38BD2DE9FC41074675
:104B30000C4615461E46DDF82080012F03DB40F2AF
:104B4000FE70874202DD0120BDE8FC8144F2506026
:104B5000854200DD054640F6B830864200DD064657
:104B6000B8F1030F01DD0120EEE7202040EA6430B8
:104B70008DF80000C4F347108DF80100E006000E28
:104B80008DF8020000208DF80300600140EAA520A6
:104B9000C0B28DF80400C5F387008DF80500A801A8
:104BA00040EAA610C0B28DF8060006F03F0048EAC1
:104BB00080008DF80700082269463846FFF720FC80
:104BC000C2E72DE9FC4106460C4615461F46012E5C
:104BD00003DB40F2FE70864202DD0120BDE8FC816D
:104BE00040F6B830854200DD0546032F01DD012087
:104BF000F4E747F040008DF80000200E8DF801002A
:104C0000200C8DF80200200A8DF80300E0B28DF828
:104C1000040028128DF80500E8B28DF806004FF068
:104C20000A080CE0072269463046FFF7E9FB4FF41B
:104C3000C870FFF71BFCA8F1010000F0FF08B8F1F5
:104C4000010FEFDC072269463046FFF7D9FBC5E7C5
:104C50002DE9F04192B080460C4615461E460027CD
:104C6000302106A8FBF744FD142101A8FBF740FD05
:104C700000BF002000902A48006840F0805028497A
:104C800008600846006800F08050009000BF00BF38
:104C900000BF002000902348006840F48040214974
:104CA00008600846006800F48040009000BF00BF24
:104CB000012006900004079002200C9041050D9100
:104CC000CDF83C800E941095119606A8FDF79CFD3A
:104CD00007461FB1012012B0BDE8F0810F200190FE
:104CE00002200290002003904FF4A05004904FF453
:104CF00080500590052101A8FDF746FC07460FB13D
:104D00000120E8E7FDF786FB41F20101884205D169
:104D10000548006840F48070034908600020DAE725
:104D20004038024000700040003C0240B0EE401AA3
:104D300030EEC10AF0EE401AB0EE412A00EE100A41
:104D4000B8EEC00A60EE212A01228A40521E00EE0F
:104D5000102AB8EEC03A82EE830A30EE020A70479B
:104D600010B5044609480A49086008464460002115
:104D70008160C160016181610C214161FEF75EF9D2
:104D8000012204490248FEF767FA10BD00500040B6
:104D9000740200200E00002030B595B0054613AB1C
:104DA00012AA09A9284600F03FFA044614B1204689
:104DB00015B030BD0020149026E0224909689DF806
:104DC000502001EBC20113AB11AA486801A900F001
:104DD0002BFA04460CB12046EAE709A901A800F025
:104DE000AFFC60B99DF844009DF84810884201DD91
:104DF0000220DDE79DF85000124988750AE09DF811
:104E00005000401CC0B214900E48007D9DF8501018
:104E10008842D2DC00BF0B48007D9DF850108842CC
:104E200001D10420C4E714A9284600F0DDFA0446A5
:104E30000CB12046BCE79DF850000249487500209F
:104E4000B6E70000A00000202DE9F0419AB09C4890
:104E5000847D007DA04202DC1AB0BDE8F081984953
:104E6000096801EBC40106AB07AA486808A900F06D
:104E7000DBF908A993A0FBF7B3FA002644E09048B9
:104E8000008B0121B1400840D8B122218FA0FBF74F
:104E9000A7FA304600F042FB8949243147183946C9
:104EA0008BA0FBF79DFA222188A0FBF799FA3046E8
:104EB00000F034FB82492431084410A941F826004F
:104EC00018E0304600F02AFB7D492431085810A92B
:104ED00041F826007A48C07D30B910A850F8261055
:104EE0007CA0FBF77DFA05E010A850F826107AA008
:104EF000FBF776FA9DF81C00401EB04202D078A065
:104F0000FBF76EFA701CC6B29DF81C008642B6DB39
:104F100074A0FBF765FA01F009F86948407D0B2899
:104F20000DD2DFE800F0060D151E27323F4E5F72EE
:104F300087006349096851F834008047054690E0CE
:104F40005F4A126852F8341010988847054688E086
:104F50005B4B1B6853F83420DDE910019047054690
:104F60007FE0574F3F6857F8343010A807C898477C
:104F7000054676E0DFF848C1DCF800C05CF8347024
:104F800010A80FC8B84705466BE01498DFF830C189
:104F90000090DCF800C05CF8347010A80FC8B84767
:104FA00005465EE0DDE91401DFF814C1CDE900013A
:104FB000DCF800C05CF8347010A80FC8B84705468C
:104FC0004FE0DDE914121698DFF8F4C0CDE90012C5
:104FD0000290DCF800C05CF8347010A80FC8B84725
:104FE00005463EE0DDE91423DDE91610DFF8D0C008
:104FF000CDE90023CDE90210DCF800C05CF8347084
:1050000010A80FC8B84705462BE0DDE91523DDE9F8
:105010001710CDE90123CDE903101498DFF8A0C0E3
:105020000090DCF800C05CF8347010A80FC8B847D6
:10503000054616E0DDE91623DDE91810CDE9022367
:10504000CDE90410DDE91401DFF874C0CDE90001F9
:10505000DCF800C05CF8347010A80FC8B8470546EB
:1050600000BF00BF00F00EFF9DF8180001280CD112
:105070001348C07D20B929461BA0FBF7B1F907E012
:1050800029461BA0FBF7ACF902E018A0FBF7A8F932
:105090000B4890F8EC0088B10948D0F8F0000A21DC
:1050A000B0FBF1F201FB12070548D0F8F000B0FBAD
:1050B000F1F83A46414611A0FBF792F900BFCBE662
:1050C000A00000200D0A25732800000025630000C1
:1050D00025730000256C640030582558000000003E
:1050E0002C000000290000003D256C753B0D0A00D6
:1050F0003D305825583B0D0A0000000046756E6390
:1051000074696F6E2052756E2054696D653A25641E
:105110002E2531646D730D0A00000000F0B50346C2
:10512000154600200022002600245BE01F782C2F6B
:1051300001D104B901221F78292F01D01F780FB99E
:1051400004B950E0002E3AD11F78302F02DB1F78CF
:10515000392F17DD1F782D2F14D01F782B2F11D04A
:105160001F78612F02DB1F78662F0BDD1F78412F20
:1051700002DB1F78462F05DD1F78582F02D01F78DD
:10518000782F0CD102B12EE01F78612F03DB1F783E
:10519000203F0F7001E01F780F70491C1FE01F783F
:1051A000222F04D102B11EE00126012417E01F784E
:1051B000202F14D01F782C2F11D0FF2613E01F783A
:1051C000222F00D1002402B10DE044B11F785C2FE2
:1051D00002D15B1C471CF8B21F780F70491C471C9A
:1051E000F8B25B1CA2E700BF00270F702E70F0BD65
:1051F00010B50446002010700BE020780870641C85
:10520000491C1078401C10701078984201DB012076
:1052100010BD2078202802D020780028EDD1002071
:10522000087000BFF4E700002DE9FF4F85B080460D
:1052300089460027002004900390012002904FF03F
:10524000000B002544461DE02078202816D005F0EC
:105250007F00052812DA0DB945F0800505F07F00C2
:10526000042803D120782A2800D00EE0207805F009
:105270007F010DF80100681CC5B202E0852D00D148
:1052800003E0641C20780028DED100BF8DB100202F
:1052900005F07F010DF8010051A1684600F050FAB9
:1052A00018B900210898017002E0012108980170E6
:1052B00000254FF0000A444614E0641C0AF1010086
:1052C00000F0FF0A2078202802D020782A2809D16F
:1052D000204600F0A7F90646282E03D02A2E01D03A
:1052E000CDF810A02078282802D020780028E4D11A
:1052F0004446049810B10498401C04444FF0000A3E
:10530000002654E0207810B94FF0010A50E02078D0
:10531000282803D116B9781CC7B213E020782928B1
:1053200008D13EB917B1781EC7B201E04FF0010AAB
:1053300047B93DE02078222804D10EB9012000E0D1
:105340000020064647B9207820282FD0207889F8F9
:10535000000009F1010929E020782C2804D101205E
:105360000290681CC5B214E02078202811D0207863
:1053700028280ED04DB9BBF1050F06DA20780DF8BC
:105380000B000BF1010000F0FF0B0298401CC0B2B3
:105390000290012F0AD10298022807D10298401CDE
:1053A000C0B202900398401CC0B20390641CA9E7ED
:1053B00000BF0398012809D100200DF80B0008A1B7
:1053C000684600F0BDF908B90020039007990398DA
:1053D0000870002089F80000504609B0BDE8F08F41
:1053E000766F6964000000002DE9F043B5B0054612
:1053F0000F460024002604E000213D488155701C22
:10540000C6B20A2EF8DB06E06D1C287818B9012018
:1054100035B0BDE8F08328782828F5D16D1C61E00F
:1054200034AA69462846FFF779FE064635449DF8BA
:10543000D00020B1012827D0FF284CD149E09DF8A9
:10544000000000B333A9684600F0F7F806460EB135
:105450000220DDE7204600F061F825490A31339A41
:105460000A50A1F12400008B0121A140884320496A
:105470001A39088304211E480155601CC4B20A2C45
:1054800001DD0320C4E726E0684600F075F9401C02
:1054900000F0FF08204600F041F815490A3100EB02
:1054A00001094946684600F05CF911481A38018B39
:1054B0000120A040014388B20D491A3908830C48E5
:1054C00000F80480601CC4B20A2C01DD03209FE7B1
:1054D00001E002209CE700BF2878292801D0287825
:1054E00000B900E09CE700BF3C70002090E700009E
:1054F000BA0000200020074A128802F400423AB1A4
:10550000044A11780022044B5A541846014B1A8061
:10551000704700000C000020AC0100200246002073
:10552000002105E0044B5B5C0344D8B24B1CD9B2AC
:105530009142F7DB70470000BA00002010B5044626
:1055400004EBC40000EB04100122C2EB800081B226
:105550004FF47A7000F0B8FC01200149C87510BD05
:10556000A000002010B50246012000E050430B1EB1
:10557000A1F10104E1B2F9D110BD000070B500261F
:10558000FFF7B8FF064606B970BD17488168304678
:10559000884704461CB91449C868804721E0304652
:1055A00000F0F6F80546012D00D02C46CCB1012CB8
:1055B00006D0022C08D0032C0AD0042C10D10BE00A
:1055C0000AA0FAF70DFF0BE00BA0FAF709FF07E0BE
:1055D0000CA0FAF705FF03E00DA0FAF701FF00BFEA
:1055E00000BF00BFD0E70000A0000020BAAFCAFD96
:1055F000B4EDCEF3210D0A00B2CECAFDB4EDCEF368
:10560000210D0A00B2CECAFDCCABB6E0210D0A00D6
:10561000CEB4D5D2B5BDC6A5C5E4B5C4BAAFCAFD32
:10562000210D0A000146491C00E0491C0878202889
:1056300001D10029F9D1087870472DE9F04F0546CE
:105640000F4600264FF00A09B3462C46002038606A
:1056500034E02078392802DC2078302811DA2878E4
:105660002D2802D028782B2800D156B12078462842
:1056700002DC2078412804DA2078582817D1012E3E
:1056800015D12078412801DB4FF0100928782D280A
:1056900003D14FF0020B6D1C0FE028782B2803D1AB
:1056A0004FF0010B6D1C08E0701CC6B205E02078BD
:1056B00000B904E00120BDE8F08F641CC9E700BF19
:1056C0002C46B9F1100F0FD1032E01DA0220F2E7B8
:1056D0002078302806D16078582803D1A41CB01E49
:1056E000C6B204E00320E6E70EB90420E3E71BE0BE
:1056F0000EB1701EC6B22078392806DC207830281A
:1057000003DB2078A0F1300A02E02078A0F1370A0C
:1057100031464846FFF726FF39680AFB001038601B
:10572000641C207800B900E0E2E700BFBBF1020F83
:1057300004D13868C0F10008C7F800800020BAE73B
:1057400002460AE010780B78984201D00120704799
:10575000107800B902E0521C491CF3E700BF00209A
:10576000F5E706E002780A70027802B902E0401C10
:10577000491CF7E700BF70470146002005E00A78A2
:1057800002B903E0421CD0B2491CF8E700BF7047E1
:1057900010B58CB004461E230BAA03A92046FFF7C0
:1057A00027FD0090009810B101200CB010BD9DF8AD
:1057B0002C00044400200B900EE040489DF82C2063
:1057C00050F8221003A8FFF7BBFF00B908E09DF8CE
:1057D0002C00401CC0B20B909DF82C000728ECD385
:1057E00000BF9DF82C00072863D2DFE800F0040515
:1057F0003C5E6564630000BF31A0FAF7F1FD31A0A3
:10580000FAF7EEFD3FA0FAF7EBFD4EA0FAF7E8FD40
:105810005CA0FAF7E5FD6BA0FAF7E2FD79A0FAF7D4
:10582000DFFD87A0FAF7DCFD8CA0FAF7D9FD94A084
:10583000FAF7D6FD98A0FAF7D3FD9DA0FAF7D0FDB0
:10584000A2A0FAF7CDFDA8A0FAF7CAFDB4A0FAF716
:10585000C7FDC1A0FAF7C4FDCCA0FAF7C1FDD8A0DE
:10586000FAF7BEFDA2E216A0FAF7BAFDE4A0FAF735
:10587000B7FD00200B900EE0F14800689DF82C2049
:1058800000EBC2004168EFA0FAF7AAFD9DF82C00DA
:10589000401CC0B20B90EA48007D9DF82C10884255
:1058A000EADC07A0FAF79CFD80E205A0FAF798FD74
:1058B000CCE179E24DE221E2F4E100001C0000209D
:1058C0000D0A00002D2D2D2D2D2D2D2D2D2D2D2DA5
:1058D0002D2D2D2D2D2D2D2D2D2D2D2D55534D4176
:1058E00052542056332E352D2D2D2D2D2D2D2D2D71
:1058F0002D2D2D2D2D2D2D2D2D2D2D2D2D2D2D20E5
:105900000D0A00002020202055534D415254CAC793
:10591000D3C9414C49454E54454BBFAAB7A2B5C463
:10592000D2BBB8F6C1E9C7C9B5C4B4AEBFDAB5F7E2
:10593000CAD4BBA5BDBBD7E9BCFE2CCDA8B9FD2000
:105940000D0A0000CBFC2CC4E3BFC9D2D4CDA8B94A
:10595000FDB4AEBFDAD6FACAD6B5F7D3C3B3CCD04E
:10596000F2C0EFC3E6B5C4C8CEBACEBAAFCAFD2CFA
:10597000B2A2D6B4D0D02ED2F2B4CB2CC4E3BFC9DD
:105980000D0A0000D2D4CBE6D2E2B8FCB8C4BAAF5C
:10599000CAFDB5C4CAE4C8EBB2CECAFD28D6A7B3C7
:1059A000D6CAFDD7D62831302F3136BDF8D6C62C11
:1059B000D6A7B3D6B8BACAFD29A1A2D7D6B7FBB429
:1059C000AE0D0A00A1A2BAAFCAFDC8EBBFDAB5D8C6
:1059D000D6B7B5C8D7F7CEAAB2CECAFD292CB5A581
:1059E000B8F6BAAFCAFDD7EEB6E0D6A7B3D6313017
:1059F000B8F6CAE4C8EBB2CECAFD2CB2A2D6A7B3A1
:105A0000D60D0A00BAAFCAFDB7B5BBD8D6B5CFD44C
:105A1000CABE2ED6A7B3D6B2CECAFDCFD4CABEBD9B
:105A2000F8D6C6C9E8D6C3B9A6C4DC2CD6A7B3D667
:105A3000BDF8D6C6D7AABBBBB9A6C4DC2E0D0A00DA
:105A4000BCBCCAF5D6A7B3D63A7777772E6F706508
:105A50006E6564762E636F6D0D0A000055534D41DF
:105A60005254D3D037B8F6CFB5CDB3C3FCC1EE286E
:105A7000B1D8D0EBD0A1D0B4293A0D0A0000000073
:105A80003F3A202020202020BBF1C8A1B0EFD6FA59
:105A9000D0C5CFA20D0A000068656C703A202020A6
:105AA000BBF1C8A1B0EFD6FAD0C5CFA20D0A000055
:105AB0006C6973743A202020BFC9D3C3B5C4BAAF90
:105AC000CAFDC1D0B1ED0D0A0A00000069643A2098
:105AD00020202020BFC9D3C3BAAFCAFDB5C44944F2
